:020000040800F2
:100000007805002045010008E1280008E3280008E1
:10001000E7280008EB280008EF280008000000008F
:10002000000000000000000000000000F3280008AD
:10003000F528000800000000F7280008F92800084B
:100040005F0100085F0100085F0100085F01000810
:100050005F0100085F0100085F0100085F01000800
:100060005F0100085F0100085F0100085F010008F0
:100070005F0100085F0100085F0100085F010008E0
:100080005F0100085F0100085F0100085F010008D0
:100090005F0100085F0100085F0100085F010008C0
:1000A0005F0100085F0100085F0100085F010008B0
:1000B000412900085F0100085F0100085F01000896
:1000C0005F0100085F0100085F0100085F01000890
:1000D0005F0100085F010008FB2800085F010008BD
:1000E0005F0100085F0100085F0100085F01000870
:1000F0005F0100085F0100085F0100085F01000860
:100100005F0100085F0100085F0100085F0100084F
:100110005F0100085F0100085F0100085F0100083F
:100120005F0100085F0100085F0100085F0100082F
:10013000DFF80CD008F088FA00480047B920000822
:10014000780500200648804706480047FEE7FEE79E
:10015000FEE7FEE7FEE7FEE7FEE7FEE7FEE7FEE777
:1001600047020008310100080CB500200190009002
:100170006C48006840F480306A49086000BF6948F4
:10018000006800F4003000900198401C0190009835
:1001900018B90198B0F5A06FF1D16248006800F479
:1001A000003010B10120009001E000200090009884
:1001B000012843D15C48006840F010005A490860AB
:1001C0000846006820F0030008600846006840F018
:1001D0000200086053484068524948600846406839
:1001E00048600846406840F48060486008464068BF
:1001F00020F47C1048600846406840F4E8104860ED
:100200000846006840F08070086000BF45480068FC
:1002100000F000700028F9D04248406820F0030048
:10022000404948600846406840F00200486000BF0E
:100230003C48406800F00C000828F9D10CBD10B50E
:10024000FFF792FF10BD10B53648006840F001007E
:1002500034490860084640683449084031494860DC
:1002600008460068324908402E4908600846006880
:1002700020F4802008600846406820F4FE004860B2
:100280004FF41F008860FFF7DAFF4FF00060294944
:10029000086010BD10B5002100200022214B5B68D2
:1002A00003F00C0121B1042906D0082928D107E068
:1002B000214B224C236027E01F4B204C236023E07E
:1002C000184B5B6803F47010164B5B6803F48032C4
:1002D000022303EB904022B9194B4343174C236090
:1002E0000DE0104B5B6803F4003323B1144B434320
:1002F000124C236003E0104B4343104C236003E097
:100300000D4B0E4C236000BF00BF064B5B68C3F370
:1003100003130C4CE15C094B1B68CB40074C23607A
:1003200010BD000000100240002002400000FFF855
:10033000FFFFF6FE08ED00E000127A00000000204A
:1003400000093D000400002031490143314A116099
:10035000704770B5002100230F22C47804B32D4CE0
:10036000246804F4E064C4F5E064210AC1F10403E4
:10037000CA40447804FA03F1847814402143090107
:10038000254C0678A155047804F01F050124AC40E3
:1003900005786D11AD0005F1E025C5F8004109E0D3
:1003A000047804F01F050124AC401C4D067876113A
:1003B00045F8264070BD1A4A0A400243154B1B1FE0
:1003C0001A60704739B1134A121D12680243114B6B
:1003D0001B1D1A6006E00F4A121D126882430D4B66
:1003E0001B1D1A607047042808D14FF0E0210969ED
:1003F00041F004014FF0E022116107E04FF0E021ED
:10040000096921F004014FF0E022116170470000FA
:100410000000FA050CED00E000E400E080E100E0FF
:1004200080FFFF1F01684FF6FE721140016000213E
:10043000016041608160C1608D49884208D18C496A
:100440000839496841F00F01894A083A51608AE049
:1004500087491431884208D185490839496841F0F3
:10046000F001834A083A51607DE081492831884291
:1004700008D17F490839496841F470617C4A083ADB
:10048000516070E07A493C31884208D17849083996
:10049000496841F47041764A083A516063E0744912
:1004A0005031884208D172490839496841F47021B5
:1004B0006F4A083A516056E06D496431884208D16C
:1004C0006B490839496841F47001694A083A51603A
:1004D00049E067497831884208D165490839496857
:1004E00041F07061624A083A51603CE061498842DB
:1004F00006D1011F096841F00F01021F116032E0AF
:100500005C491431884208D15A49091F096841F0F1
:10051000F001584A121F116025E0564928318842DF
:1005200008D15449091F096841F47061514A121FEA
:10053000116018E04F493C31884208D14D49091FEC
:10054000096841F470414B4A121F11600BE04949A0
:100550005031884207D14749091F096841F4702189
:10056000444A121F1160704710B50022026847F616
:10057000F0739A430C6A8B6823430C6923434C69DC
:1005800023438C692343CC6923434C6A23438C6AFD
:1005900023431A430260CB6843600B6883604B6857
:1005A000C36010BD0021016041608160C1600161D4
:1005B00041618161C161016241628162704721B123
:1005C000026842F00102026004E002684FF6FE7326
:1005D0001A40026070471AB103680B43036002E0DF
:1005E00003688B4303607047416070470146486869
:1005F00080B2704701460020002201F080531BB1F9
:100600001C4B083B1A6802E0194B083B1A6802EAC7
:1006100001030BB1012000E00020704700F0805181
:1006200019B11449091F086002E0114908394860EE
:10063000704701460020002201F080531BB10D4B92
:10064000083B1A6802E00A4B083B1A6802EA0103F9
:100650000BB1012000E00020704700F0805119B17B
:100660000449091F086002E00149083948607047E1
:100670000800024008040240002044490860091DA7
:100680000860091D0860091D086041483F49143190
:100690000860704700213D498279002A3AD00A4615
:1006A000126803689A430B461A600A1D12680368B1
:1006B0009A430B1D1A60027911440A6803681A43B1
:1006C0000A60324A0832126803689A432F4B083393
:1006D0001A601A1D126803689A432C4B0C331A6077
:1006E0004279102A0ED11A1F126803681A43274B49
:1006F00008331A601A1D126803681A43234B0C331F
:100700001A600DE02149427911440A6803681A43CE
:100710000A6005E0027911440A6803689A430A6096
:1007200070470021016001710C214171002181712C
:1007300070471649103109680143144A103211609C
:10074000704701460020114A143212680A400AB16B
:10075000012000E0002070470C4914310860704708
:10076000014600200022094B1B6803EA0102074BE7
:1007700014331B680B4013B10AB1012000E00020C4
:1007800070470249143108607047000000040140BE
:10079000FFFF0F0010B50446CC48844208D1012168
:1007A000042000F02DFB0021042000F029FB46E08E
:1007B000C748844208D10121082000F021FB002114
:1007C000082000F01DFB3AE0C248844208D1012114
:1007D000102000F015FB0021102000F011FB2EE08E
:1007E000BD48844208D10121202000F009FB0021EE
:1007F000202000F005FB22E0B848844208D1012106
:10080000402000F0FDFA0021402000F0F9FA16E047
:10081000B348844208D10121802000F0F1FA002180
:10082000802000F0EDFA0AE0AE48844207D10121B1
:10083000801500F0E5FA0021A01500F0E1FA10BDE6
:1008400010B50121084600F0DBFA0021012000F07C
:10085000D7FA10BD2DE9F041024600250026002000
:1008600000230024002791F803C00CF00F0591F835
:1008700003C00CF0100CBCF1000F03D091F802C0C3
:100880004CEA050591F800C0BCF1000F31D01468A6
:1008900000202BE04FF0010C0CFA00F3B1F800C07F
:1008A0000CEA03069E4220D183004FF00F0C0CFA95
:1008B00003F7BC4305FA03FC4CEA040491F803C0B7
:1008C000BCF1280F06D14FF0010C0CFA00FCC2F865
:1008D00014C00AE091F803C0BCF1480F05D14FF0F5
:1008E000010C0CFA00FCC2F810C0401C0828D1D33F
:1008F0001460B1F800C0BCF1FF0F34DD5468002073
:100900002EE000F1080C4FF0010808FA0CF3B1F8E2
:1009100000C00CEA03069E4221D183004FF00F0C69
:100920000CFA03F7BC4305FA03FC4CEA040491F803
:1009300003C0BCF1280F05D100F1080C08FA0CF82F
:10094000C2F8148091F803C0BCF1480F07D100F140
:10095000080C4FF0010808FA0CF8C2F81080401C8F
:100960000828CED35460BDE8F0814FF6FF710180B6
:10097000022181700421C1707047024600209368F3
:100980000B400BB1012000E0002070470146886851
:1009900080B2704702460020D3680B400BB10120A3
:1009A00000E0002070470146C86880B270470161CE
:1009B0007047416170470AB1016100E041617047D1
:1009C000C16070474FF480320A4382618161826165
:1009D00082698269704702460020434B18684FF6CF
:1009E0008073184040EA021008433F4B186070477C
:1009F0003E49C8617047F0B50A4600230024002133
:100A0000002500F00046B6F1004F02D1364EF169E4
:100A100001E0354E7168C0F3034583B200F440161F
:100A2000B6F5401F08D121F070612F4E766826F090
:100A300070662D4F7E6012E000F48016B6F5801FC0
:100A400006D1032606FA05F4A14341F0706106E0E1
:100A5000460D360103FA06F6B14341F0706122B14A
:100A6000460D360103FA06F6314300F00046B6F1B2
:100A7000004F02D11C4EF16101E01B4E7160F0BDD0
:100A800030B500228B071C0F0F2303FA04F2164B1C
:100A900008338C1053F824309343134C08348D10D2
:100AA00044F8253023468C1053F824308C07240F4B
:100AB00000FA04F423430C4C08348D1044F825301C
:100AC00030BD0A49DC310860704700000008014071
:100AD000000C0140001001400014014000180140CA
:100AE000001C0140002001400000014000002042A5
:100AF000DF48006840F00100DD49086008464068B2
:100B0000DC490840DA49486008460068DA4908408C
:100B1000D74908600846006820F48020086008462D
:100B2000406820F4FE0048604FF41F008860704762
:100B3000CF49096821F48031CD4A11601146096816
:100B400021F480211160B0F5803F03D0B0F5802FF3
:100B50000ED106E0C649096841F48031C44A1160EB
:100B600007E0C349096841F4A021C14A116000E0CF
:100B700000BF00BF704710B50146002200230020CF
:100B80004A11012A02D1BA4C236806E0022A02D196
:100B9000B74C236A01E0B64C636A01F01F020124DE
:100BA00094401C400CB1012000E0002010BD38B57D
:100BB000002000900024002500BF3120FFF7DBFF5C
:100BC00005460098401C00900098B0F5A06F01D039
:100BD000002DF2D03120FFF7CEFF08B1012400E054
:100BE0000024204638BD01460020A14A106820F0AC
:100BF000F80040EAC10010607047A04908607047E3
:100C0000024600209A4B586820F47C1042EA010307
:100C10001843974B586070479849086670470146DB
:100C20000020934A506820F003000843506070474A
:100C30008F48406800F00C007047014600208C4A45
:100C4000506820F0F00008435060704701460020D3
:100C5000874A506820F4E0600843506070470146BE
:100C60000020834A506820F4605040EAC100506080
:100C7000704729B17E4A527A02437D4B5A7204E092
:100C80007B4A527A82437A4B5A7270477B49D831F9
:100C90000860704701460020754A506820F44040C3
:100CA0000843506070470021714A20321170704A29
:100CB00082F82010012802D004280AD104E0012182
:100CC0006B4A2032117005E00521694A203211700B
:100CD00000E000BF00BF7047694908607047644981
:100CE000096A0143624A11627047654944390860E4
:100CF000704730B500210022002400235C4D6D6850
:100D000005F00C0121B1042905D0082923D105E003
:100D10005C4D056022E05B4D05601FE0544D6D6841
:100D200005F47012524D6D6805F48034022505EB10
:100D300092421CB9544D554305600BE04C4D6D6813
:100D400005F400351DB1504D5543056002E04D4D91
:100D50005543056002E04B4D056000BF00BF444DA8
:100D60006D6805F0F0010909484D6B5C0568DD40D0
:100D700045603F4D6D6805F4E061090A434D6B5CC9
:100D80004568DD4085603A4D6D6805F46051C90ADB
:100D90003E4D6B5C4568DD40C560354D6D6805F4C2
:100DA0004041890B3A4D6B5CC568B5FBF3F50561B5
:100DB00030BD29B12E4A526902432D4B5A6104E0DD
:100DC0002B4A526982432A4B5A61704729B1284AFB
:100DD00092690243264B9A6104E0254A9269824354
:100DE000234B9A61704729B1214AD2690243204BB3
:100DF000DA6104E01E4AD26982431D4BDA61704712
:100E000029B11B4AD2680243194BDA6004E0184A40
:100E1000D2688243164BDA60704729B1144A1269CE
:100E20000243134B1A6104E0114A12698243104BCA
:100E30001A61704712494039086070470F49C86409
:100E400070470B49C87170470948406A40F080708C
:100E500007494862704701460020054A92680A40E7
:100E60000AB1012000E000207047014988727047F4
:100E7000001002400000FFF8FFFFF6FE00004242B3
:100E80008004424200127A0000093D001400002054
:100E90002400002010B50446FE48844208D10121F8
:100EA000C014FFF7ADFF0021E014FFF7A9FFC4E075
:100EB000B4F1804F08D101210846FFF7AEFF0021B1
:100EC0000120FFF7AAFFB8E0F348844208D10121CE
:100ED0000220FFF7A2FF00210220FFF79EFFACE0F7
:100EE000EE48844208D101210420FFF796FF00213B
:100EF0000420FFF792FFA0E0E948844208D10121D5
:100F00000820FFF78AFF00210820FFF786FF94E002
:100F1000E448844208D101211020FFF77EFF002120
:100F20001020FFF77AFF88E0DF48844208D10121D2
:100F30002020FFF772FF00212020FFF76EFF7CE0EA
:100F4000DA48844208D101214014FFF759FF0021FB
:100F50006014FFF755FF70E0D548844209D10121A4
:100F6000C804FFF74DFF00214FF40020FFF748FFB2
:100F700063E0D048844209D101210805FFF740FF12
:100F800000214FF48010FFF73BFF56E0CA4884422F
:100F900009D101214805FFF733FF00214FF400106C
:100FA000FFF72EFF49E0C548844208D101214020C7
:100FB000FFF733FF00214020FFF72FFF3DE0C0483F
:100FC000844208D101218020FFF727FF00218020E3
:100FD000FFF723FF31E0BB48844208D1012180158F
:100FE000FFF71BFF0021A015FFF717FF25E0B6480C
:100FF000844209D101210804FFF702FF00214FF4C8
:101000008030FFF7FDFE18E0B048844209D101218D
:101010004804FFF7F5FE00214FF40030FFF7F0FE23
:101020000BE0AB48844208D101218804FFF7E8FEB9
:1010300000214FF48020FFF7E3FE10BD002202885C
:10104000944B98420ED0994B98420BD0B0F1804F00
:1010500008D0914B984205D0904B984202D0904BCB
:10106000984204D14FF68F731A404B881A438D4B28
:10107000984207D08C4B984204D04FF6FF431A4059
:10108000CB881A4302808B8883850B880385814B2C
:1010900098420BD0854B984208D08B4B984205D094
:1010A0008A4B984202D08A4B984201D10B7A038630
:1010B00001238382704770B5002400220023058C31
:1010C0004FF6FE7635400584028C8388048B4FF6FC
:1010D0008F752C40B51E2C400D882C43751E2A4060
:1010E0000D892A434D882A436A4DA8420BD06F4D83
:1010F000A84208D0744DA84205D0744DA84202D031
:10110000734DA84213D14FF6F7752A404D892A43F3
:101110004FF6FB752A408D882A434FF6FF652B401A
:101120004FF6FF552B408D892B43CD892B43838070
:101130000483CD888586028470BD70B500240022AA
:101140000023058C4FF6EF7635400584028C8388AA
:10115000048B48F6FF752C404FF6FF452C400D8858
:101160004FF6FF7606EA05252C434FF6DF752A4039
:101170000D8906EA05152A434D8806EA05152A4316
:10118000444DA84202D0494DA8421DD14FF67F756B
:101190002A404D894FF6FF7606EA05152A434FF699
:1011A000BF752A408D8806EA05152A434FF6FF359C
:1011B0002B404FF2FF752B408D8906EA85052B43A6
:1011C000CD8906EA85052B4383800483CD88058776
:1011D000028470BD70B5002400220023058C4FF6F8
:1011E000FF6635400584028C8388848B4FF68F75AB
:1011F0002C404FF6FC752C400D882C434FF6FF55C4
:101200002A400D894FF6FF7606EA05252A434D88C8
:1012100006EA05252A431F4DA84202D0234DA842C5
:101220001DD14FF2FF752A404D894FF6FF7606EA31
:1012300005252A434FF6FF352A408D8806EA052505
:101240002A434EF6FF752B404DF6FF752B408D89D6
:1012500006EA05152B43CD8906EA05152B43838045
:101260008483CD888587028470BD70B500220023F9
:101270000024058C4EF6FF7635400584038C848867
:10128000828B48F6FF752A404FF6FF452A400D88AD
:1012900020E00000002C0140000400400008004055
:1012A000000C0040001000400014004000340140D9
:1012B000004C014000500140005401400018004023
:1012C000001C00400020004000400140004401405C
:1012D000004801404FF6FF7606EA05252A434DF601
:1012E000FF752B400D8906EA05352B434D8806EA2C
:1012F00005352B43FA4DA84202D0FA4DA84208D139
:101300004BF6FF752C408D894FF6FF7606EA851562
:101310002C4384808283CD88A0F84050038470BD24
:10132000828B4FF2FF331A408283828B4FF6FF731A
:1013300003EA01231A4382837047F0B50C46154631
:10134000002200210026078C4EF6FF7C07EA0C07DE
:101350000784828B018C4FF6FF7707EA043640F64C
:10136000FF473A404FF6FF7707EA05273A434FF623
:10137000FF7707EA03373A43D94FB8420ED0D94F27
:10138000B8420BD0B0F1804F08D0D74FB84205D04B
:10139000D64FB84202D0D64FB84206D14DF6FF77AD
:1013A000394046F48057394305E047F6FF57394046
:1013B00044F48057394382830184F0BD828B4FF619
:1013C000F3731A408283828B0A4382837047F0B59D
:1013D0000C461546002200210026078C4FF6FF6CB4
:1013E00007EA0C070784828B018C4FF6FF7707EA28
:1013F00004264FF60C773A404FF6FF7707EA0317BB
:101400002F433A43B64FB8420ED0B64FB8420BD036
:10141000B0F1804F08D0B44FB84205D0B34FB842B6
:1014200002D0B34FB84206D14FF6FF57394046F4C9
:101430008077394305E04FF2FF57394044F4807715
:10144000394382830184F0BD028B4FF2FF331A408F
:101450000283028B4FF6FF7303EA01231A430283D0
:101460007047F0B50C461546002200210026078C77
:101470004FF6EF7C07EA0C070784028B018C4FF6CE
:10148000FF7707EA041640F6FF473A404FF6FF772A
:1014900007EA03373A434FF6FF7707EA05273A434F
:1014A0008F4FB8420ED08F4FB8420BD0B0F1804F63
:1014B00008D08D4FB84205D08C4FB84202D08C4F27
:1014C000B84206D14FF6DF77394046F0100739436E
:1014D00005E04FF65F77394044F010073943028347
:1014E0000184F0BD028B4FF6F3731A400283028B26
:1014F0000A4302837047F0B50C46154600220021CE
:10150000068C4FF6FE773E400684028B018C4FF628
:101510000C7632407E1C06EA03162E433243704E90
:10152000B0420ED06F4EB0420BD0B0F1804F08D019
:101530006D4EB04205D06D4EB04202D06C4EB042FE
:1015400006D14FF6FD76314044F00106314305E007
:101550004FF6F576314044F00106314302830184B1
:10156000F0BD70B505460C465D4885420ED05D481D
:1015700085420BD0B5F1804F08D05B48854205D03D
:101580005A48854202D05A48854200D100E000BF47
:10159000208850B92389A28861882846FFF7ABFFCD
:1015A000E1882846FFF79EFF25E0208804280AD11D
:1015B0002389A28861882846FFF753FFE1882846DF
:1015C000FFF742FF17E0208808280AD12389A28864
:1015D00061882846FFF7FBFEE1882846FFF7EEFE0C
:1015E00009E02389A28861882846FFF7A6FEE188E2
:1015F0002846FFF795FE70BD2DE9F04105460C46E3
:1016000000260127608808B9022600E00026A0888D
:10161000012801D1022700E001272088A0B92389F1
:10162000A28861882846FFF766FFE1882846FFF711
:1016300059FF23893A4631462846FFF712FFE188D1
:101640002846FFF701FF13E02389A2886188284616
:10165000FFF707FFE1882846FFF7F6FE23893A46A1
:1016600031462846FFF747FFE1882846FFF73AFF53
:10167000BDE8F0810A884B881A438B881A43CB88CF
:101680001A430B891A434B891A438B891A43A0F8D2
:10169000442070474FF6FF71818000210180C18096
:1016A0004180017270470021018041808180C180AA
:1016B000018141818181C181704700210180418088
:1016C000012181800021C1800181704700210180BA
:1016D00041808180C180018141818181704700000A
:1016E000002C01400034014000040040000800408C
:1016F000000C004021B1028842F00102028004E0A7
:1017000002884FF6FE731A400280704731B1B0F87C
:10171000442042F40042A0F8442005E0B0F8442000
:10172000C2F30E02A0F8442070471AB183890B431C
:10173000838102E083898B43838170478182704774
:1017400041EA0203A0F8483070471AB183890B437D
:10175000838102E083898B438381704701894FF63F
:10176000F8721140018170470A46002101894FF645
:101770008F73194011430181704730B504460D46FF
:1017800029462046FFF7F0FF208940F0070020811E
:1017900030BD2DE9F04104460D4616461F46602D2A
:1017A00006D13B46012231462046FFF75AFE05E0AE
:1017B0003B46012231462046FFF79DFE2946204642
:1017C000FFF7D2FF208940F007002081BDE8F081BB
:1017D00030B50C4600210189C9B24FF6FF7505EA04
:1017E0000325154325432943018130BD2DE9F041EF
:1017F00005460E4617469846002443463A4631466B
:101800002846FFF7E5FF2C894FF6F870044044F0B6
:1018100007044FF68F70044044F070042C81BDE83B
:10182000F081F0B504460D4616461F463B4632464B
:1018300029462046FFF7CCFF208940F480402081D4
:10184000F0BD0185828270470A46002101884FF66B
:101850008F731940114301807047F0B50C4615464F
:101860001E460021002200230189028B038C4FF6C3
:10187000F877394021434FF6FC473A4040F20117D0
:101880003A434FF6DD773B404FF6FF7707EA0617FE
:101890002F433B43018102830384F0BD0A460021AC
:1018A000018B4FF68F7319401143018370470A462D
:1018B0000021018B48F6FF7319404FF6FF7303EACE
:1018C00002231943018370470A460021818B4FF69A
:1018D0008F7319401143818370470A460021818B21
:1018E00048F6FF7319404FF6FF7303EA02231943CA
:1018F0008183704721B1028842F08002028004E0B7
:1019000002884FF67F731A400280704721B18288A7
:1019100042F00402828004E082884FF6FB731A4092
:101920008280704721B1828842F00802828004E000
:1019300082884FF6F7731A408280704721B18288FF
:1019400042F00102828004E082884FF6FE731A4062
:10195000828070470A460021018B4FF6F7731940C9
:101960001143018370470A460021018B4FF2FF7338
:1019700019404FF6FF7303EA0223194301837047AE
:101980000A460021818B4FF6F7731940114381837A
:1019900070470A460021818B4FF2FF7319404FF6C2
:1019A000FF7303EA02231943818370470A4600212B
:1019B000018B4FF6FB7319401143018370470A46B0
:1019C0000021018B4FF6FF3319404FF6FF7303EAF6
:1019D00002231943018370470A460021818B4FF689
:1019E000FB7319401143818370470A460021818BA4
:1019F0004FF6FF3319404FF6FF7303EA02231943F2
:101A0000818370470A460021018B4FF67F7319408E
:101A10001143018370470A460021018BC1F30E0177
:101A20004FF6FF7303EA02231943018370470A4606
:101A30000021818B4FF67F731940114381837047DA
:101A40000A460021818BC1F30E014FF6FF7303EAB2
:101A500002231943818370470A460021018C4FF607
:101A6000FD7319401143018470470A460021018C1F
:101A70004FF6F77319401143018470470A4600215D
:101A8000018C4FF6DF7319404FF6FF7303EA021320
:101A90001943018470470A460021018C4FF67F7379
:101AA00019404FF6FF7303EA02131943018470478C
:101AB0000A460021018C4FF6FF5319404FF6FF7381
:101AC00003EA02231943018470470A460021018C6E
:101AD0004FF2FF7319404FF6FF7303EA02231943D5
:101AE000018470470A460021018C4DF6FF731940AE
:101AF0004FF6FF7303EA023319430184704730B590
:101B0000002301248C40A3B2048C9C430484048CE5
:101B100002FA01F5ADB22C43048430BD30B5002388
:101B200004248C40A3B2048C9C430484048C02FAE9
:101B300001F5ADB22C43048430BD70B503460020DE
:101B400000241846183001258D40ACB21D8CA543E9
:101B50001D8409B1082909D100EB6100056825F051
:101B6000700505600568154305600EE00D1FC5F39F
:101B70004E052844056825F4E045056005684FF6E4
:101B8000FF7606EA02263543056070BD21B1028862
:101B900042F00202028004E002884FF6FD731A4010
:101BA0000280704721B1028842F00402028004E002
:101BB00002884FF6FB731A400280704721B1828879
:101BC00042F08002828004E082884FF67F731A40E0
:101BD0008280704702884FF6F7731A4002800288AD
:101BE0000A430280704782884FF68F731A408280C2
:101BF00082880A438280704702894FF6F8731A4040
:101C0000028102890A430281704702894FF67F737D
:101C10001A40028102890A43028170478184704719
:101C2000818570478186704701877047818770473B
:101C3000A0F84010704702884FF6FF431A40028018
:101C400002880A43028070470146888E7047014629
:101C5000088F70470146888F70470146B1F84000F1
:101C600070470146888C70470146088D70470246D0
:101C70000020138A0B400BB1012000E000207047C8
:101C8000CA430282704730B5024600200023002478
:101C9000158A05EA0103958905EA010413B10CB11F
:101CA000012000E0002030BDCA43028270470000DE
:101CB00010B50446FB48844209D101218803FFF78F
:101CC0009FF800214FF48040FFF79AF832E0F64881
:101CD000844209D101214804FFF79FF800214FF405
:101CE0000030FFF79AF825E0F048844209D101213D
:101CF0008804FFF792F800214FF48020FFF78DF859
:101D000018E0EB48844209D10121C804FFF785F8A7
:101D100000214FF40020FFF780F80BE0E5488442F3
:101D200008D101210805FFF778F800214FF4801051
:101D3000FFF773F810BD2DE9F04786B005460E4653
:101D40000024A24600BFA1460027B08900B100BF11
:101D50002F462C8A4CF6FF700440F08804432C82F6
:101D6000AC894EF6F3100440B0883189084371897C
:101D700008430443AC81AC8A4FF6FF400440B0896D
:101D80000443AC8201A8FEF7B4FFC648874202D1E3
:101D9000DDF810A001E0DDF80CA0A88900F40040F7
:101DA00040B10AEBCA0000EB0A1031684900B0FBF1
:101DB000F1F807E00AEBCA0000EB0A10316889006D
:101DC000B0FBF1F86420B8FBF0F0040120096421B5
:101DD00001FB1089A88900F4004040B1322000EBDB
:101DE000C900B0FBF1F000F00700044308E0322026
:101DF00000EB09106421B0FBF1F000F00F00044388
:101E00002C8106B0BDE8F0874FF416510160002127
:101E10008180C18001810C21418100218181704735
:101E200010B502460020108A4FF2FF0318400B88BD
:101E30004C8823438C882343CC8823431843108247
:101E400010BD0021018041808180C180704721B197
:101E5000828942F40052828104E082894DF6FF7348
:101E60001A4082817047F0B5034600240026002501
:101E7000002040F66A17B94200D100BF1846C1F3EE
:101E8000421401F01F06012707FA06F5012C01D1C3
:101E90000C3004E0022C01D1103000E014301AB1F3
:101EA00007682F43076002E00768AF430760F0BD93
:101EB0001AB1838A0B43838202E0838A8B43838235
:101EC0007047028A4FF6F0731A400282028A0A4370
:101ED0000282704782894FF2FF731A4082818289A1
:101EE0000A438281704721B1828942F002028281D5
:101EF00004E082894FF6FD731A4082817047028A9E
:101F00004FF6DF731A400282028A0A430282704748
:101F100021B1028A42F48042028204E0028A4BF636
:101F2000FF731A4002827047C1F308028280704733
:101F300001468888C0F308007047818941F001019B
:101F400081817047028BD2B20283028B42EA012266
:101F500002837047028B02F47F420283028B0A43A2
:101F60000283704721B1828A42F02002828204E01B
:101F7000828A4FF6DF731A408282704721B1828ACB
:101F800042F01002828204E0828A4FF6EF731A4018
:101F90008282704721B1828A42F00802828204E084
:101FA000828A4FF6F7731A408282704721B1828984
:101FB00042F40042828103E08289C2F30E028281F0
:101FC000704721B1828A42F40062828204E0828AF0
:101FD0004FF2FF731A4082827047828A4FF6FB737A
:101FE0001A408282828A0A438282704721B1828AA1
:101FF00042F00202828204E0828A4FF6FD731A40A8
:102000008282704702460020B1F5007F00D100BFF8
:1020100013880B400BB1012000E00020704701F451
:102020000072B2F5007F00D100BFCA430280704742
:1020300070B50246002400230025002040F66A16F1
:10204000B14200D100BFC1F3421501F01F030126C8
:1020500006FA03F3012D02D19689334006E0022DE2
:1020600002D1168A334001E0968A33400C120126D1
:1020700006FA04F41688344013B10CB1012000E0D4
:10208000002070BD10B50022002340F66A14A14262
:1020900000D100BF0A1201249440A3B2DC430480A3
:1020A00010BD0000003801400044004000480040DE
:1020B000004C00400050004004F0CDF804F090F8CF
:1020C00005F0F7FC05F09CF805F07AF900F03FFD0B
:1020D00004F0A5FF05F014FD00F023FE05F08AFDD5
:1020E000E4E3FE4800780128FAD1FD480078022890
:1020F00002D101F099FB0DE001F096FBF94908606F
:102100000846006806F0A0F8044622460B46F6A0F2
:1021100006F0ACFAF649F748006806F0FFF86DD211
:10212000F549F448006806F0EFF867D2F348006814
:1021300006F08AF80446F24AF24B06F0B1F85DD296
:10214000EE48006806F080F80446ED4AEE4B06F0D3
:102150008FF853D2ED48006806F076F80446EC4A52
:10216000EC4B06F09DF849D2E848006806F06CF8A0
:102170000446E34AE44B06F07BF83FD2E6480068A9
:1021800006F062F80446DE4ADE4B06F089F835D2E6
:10219000E148006806F058F80446D94ADA4B06F0E0
:1021A00067F82BD2DD48007838B90120DB49087088
:1021B0000020DB490880DB490870DA4800780128F4
:1021C0001FD1D948007830B90021012005F0BEF8B0
:1021D0000120D5490870C248007848B1C04800784D
:1021E000BF4948700120D1490870002105F0AEF8C0
:1021F0000020BB490870BB49086002E00020C749C5
:102200000870CB49BB48006806F07EF805D3C94981
:10221000B848006806F082F860D2B848006806F056
:1022200013F80446B64AB74B06F03AF856D2B3480C
:10223000006806F009F80446B14AB34B06F018F8F6
:102240004CD2B248006805F0FFFF0446AC4AAD4BE3
:1022500006F026F842D2AD48006805F0F5FF0446C6
:10226000A74AA94B06F004F838D2AB48006805F03D
:10227000EBFF0446A24AA34B06F012F82ED2A64862
:10228000006805F0E1FF04469D4A9F4B05F0F0FF12
:1022900024D2A948007838B90120A7490870002045
:1022A0009F4908809F4908709E480078012818D1EE
:1022B0008B48007801280AD08948007888494870FE
:1022C00001209E4908700021042005F03FF80120FC
:1022D0008349087000208349086002E00020964985
:1022E000087097497F48006806F018F80CD27C48BF
:1022F0000078022808D07A4800787949487002208E
:10230000087001208F4908707548007818B174482A
:102310000078012802D100208B49087077480068B6
:1023200005F092FF0446764A764B05F0A1FF1DD3D7
:102330007248006805F088FF0446714A724B05F048
:10234000AFFF13D37148006805F07EFF04466C4A66
:102350006C4B05F08DFF09D36C48006805F074FFE5
:102360000446674A684B05F09BFF13D274495D48E9
:10237000006805F0C9FF0DD259480078032806D03F
:10238000574800785649487001207049087003206A
:10239000534908705248007818B151480078012814
:1023A00002D100206A4908704D48007830B10128F8
:1023B00025D0022844D003287DD13CE2484840780B
:1023C000022809D163480078092805DC57480078BD
:1023D00010B10020554908704148407803280DD1BC
:1023E0005D480078052809DD5B4800780A2805DC8F
:1023F0004E48007810B100204C49087055E238482A
:102400004078022809D153480078092805DC4B4858
:10241000007810B1002049490870314840780328FD
:102420000DD14D480078052809DD4B4800780A2871
:1024300005DC4248007810B100204049087034E2C1
:1024400027484078C0BB45492648006805F066FF2C
:1024500027D23C48007848B100203A490870012052
:102460003F4908700121052004F070FF15E03D4848
:10247000006840F480403B4908604FF47A7000F0F7
:1024800006FB3848001D006840F480403549091DAE
:1024900008604FF47A7000F0FAFA314800780028AA
:1024A000E5D127490F48006805F038FF7DD22B4958
:1024B0000C48006801E0F7E177E005F025FF74D2F1
:1024C00024480078082870DD1E48007820B10020DC
:1024D0001C490870012047E04CE00000FA00002091
:1024E000380000204C0000206469733A2025660003
:1024F0000000F0C1780000200000F04180000020C2
:102500009A99999999192340991924408400002097
:10251000CDCCCCCCCC4C2340880000204500002002
:102520003C0000203A00002059000020500000200C
:10253000000070C2000070424600002051000020E0
:1025400000002041520000204700002053000020DE
:1025500048000020400000204400002000004842C5
:1025600049000020100C0140D149087001210620CB
:1025700004F0ECFE15E0CF48006840F48040CD49FF
:1025800008604FF47A7000F082FACA48001D0068B3
:1025900040F48040C749091D08604FF47A7000F08C
:1025A00076FAC34800780028E5D1C348407801286E
:1025B00065D1C249C248006805F0B0FE27D2C148C3
:1025C000007848B10020BF4908700120B849087060
:1025D0000121052004F0BAFE15E0B648006840F479
:1025E0008040B44908604FF47A7000F050FAB14866
:1025F000001D006840F48040AE49091D08604FF49A
:102600007A7000F044FAAA4800780028E5D1AE4973
:10261000AB48006805F082FE31D2A849A84800689E
:1026200005F072FE2BD2A9480078082827DDA548BE
:10263000007848B10020A349087001209C49087027
:102640000121062004F082FE15E09A48006840F45B
:102650008040984908604FF47A7000F018FA954865
:10266000001D006840F480409249091D08604FF445
:102670007A7000F00CFA8E4800780028E5D18E4878
:10268000407803287ED192480078E8BB8B498C487B
:10269000006805F043FE27D28A48007848B1002040
:1026A000884908700120824908700121052004F042
:1026B0004DFE15E07F48006840F480407D49086089
:1026C0004FF47A7000F0E3F97A48001D006840F496
:1026D00080407849091D08604FF47A7000F0D7F9FE
:1026E000734800780028E5D17A497548006805F0FC
:1026F00015FE33D271497248006805F005FE2DD2EF
:1027000072480078082800E028E027DD6D4800784E
:1027100048B100206B49087001206549087001210B
:10272000062004F013FE15E06248006840F4804083
:10273000604908604FF47A7000F0A9F95D48001D07
:10274000006840F480405B49091D08604FF47A70CE
:1027500000F09DF9564800780028E5D15C480078E3
:10276000012867D155495648006805F0D7FD29D2A0
:102770005448007858B100205249087001204C4953
:10278000087000E056E00121052004F0DFFD15E0AF
:102790004848006840F48040464908604FF47A7029
:1027A00000F075F94348001D006840F4804041493D
:1027B000091D08604FF47A7000F069F93C48007810
:1027C0000028E5D140493E48006805F0A7FD31D218
:1027D0003A493B48006805F097FD2BD23B4800780A
:1027E000082827DD3748007848B1002035490870AF
:1027F00001202F4908700121062004F0A7FD15E0F3
:102800002C48006840F480402A4908604FF47A70F0
:1028100000F03DF92748001D006840F4804025493C
:10282000091D08604FF47A7000F031F920480078F3
:102830000028E5D139E02048407810B9002024492B
:1028400008701D484078012801D1214908702248AC
:1028500000780A2827DD2148007848B100201F4968
:1028600008700120124908700121072004F06EFD54
:1028700015E01048006840F480400E4908604FF4AD
:102880007A7000F004F90B48001D006840F48040A5
:102890000849091D08604FF47A7000F0F8F8044800
:1028A00000780028E5D100E000BF00BF19E4000077
:1028B00049000020100C0140380000200000484270
:1028C0004C00002052000020000070414000002019
:1028D0004B00002000002041440000205300002055
:1028E000704700BFFEE700BFFEE700BFFEE700BF86
:1028F000FEE7704770477047704710B540F22551AA
:102900004648FFF795FBD0B14448FFF711FBC4B22E
:10291000632C0CD10020424908704249087042499A
:1029200008704248006840F48040404908606F2CBD
:1029300001D105F07CF9752C01D105F05BF910BDD2
:1029400010B501218807FFF79EF9002865D03848A7
:102950000078401C3649087036480088401C3549CC
:1029600008800846008842F21071884207D1324838
:102970000078401C3049087000202E4908802F48FC
:102980000078022820D12E48007838B901202C493F
:1029900008700020244908702A49088020480078DF
:1029A00090B928480088401C2649088008460088BD
:1029B00042F21071884207D11B480078401C1A4926
:1029C000087000201F4908801C480078032820D187
:1029D0001D48007838B901201B49087000201149B2
:1029E00008701A4908800E48007890B91748008886
:1029F000401C164908800846008842F2107188423F
:102A000007D108480078401C0649087000200F498B
:102A1000088001218807FFF747F910BD00440040F6
:102A2000490000204400002040000020140C014018
:102A3000650000203C0000203A0000203800002003
:102A4000470000203E0000204800002042000020F7
:102A500001461F4A12681F4BB2FBF3F24A434FF084
:102A6000E0235A6100229A6101221A6100BF4FF0EF
:102A7000E022106900F001021AB100F48032002A4D
:102A8000F5D000224FF0E0231A619A6170470146A9
:102A90000F4A12684FF4FA53B2FBF3F24A434FF075
:102AA000E0235A6100229A6101221A6100BF4FF0AF
:102AB000E022106900F001021AB100F48032002A0D
:102AC000F5D000224FF0E0231A619A6170477047F9
:102AD0000000002000127A00014691F90020002A2F
:102AE00001DD00201EE091F90020002A01DA042017
:102AF00018E091F90120002A01DD012012E091F98E
:102B00000120002A01DA05200CE091F90220002AB8
:102B100001DD022006E091F90220002A01DA0620F8
:102B200000E00720704770B505462846FFF7D4FF40
:102B30000446E81CFFF7D0FF44EAC00084B2A81D99
:102B4000FFF7CAFF44EA801084B2204670BD70B51A
:102B5000002400BF01F0F7FFC4B2002CFAD17CD1F1
:102B60007FA005F083FD782001F04FFC18B985A007
:102B700005F07CFD04E08BA005F078FD00BFFEE7CA
:102B8000782001F02FFE18B991A005F06FFD04E048
:102B900098A005F06BFD00BFFEE7022001F04FFF9B
:102BA00018B9A0A005F062FD04E0A7A005F05EFD45
:102BB00000BFFEE74FF47A7001F0F5FE18B9ABA044
:102BC00005F054FD04E0B3A005F050FD00BFFEE7A2
:102BD00003F060FB18B9B8A005F048FD04E0C3A0FD
:102BE00005F044FD00BFFEE7CF48FFF79CFF054618
:102BF00003F05BFB18B9CDA005F038FD04E0D5A0CB
:102C000005F034FD00BFFEE740F2731003F085FFCE
:102C100018B9DCA005F02AFD04E0E3A005F026FDCC
:102C200000BFFEE7C82003F0FAFC18B9EAA005F0DF
:102C30001DFD05E0F1A005F019FD00BFFEE70CE069
:102C4000012002F0B7FF18B9F7A005F00FFD04E06E
:102C5000FEA005F00BFD00BFFEE770BD7EB502468D
:102C6000002400940194029400200DE032F91040F9
:102C7000B4F5C87F07DA32F9104014F5C87F02DDD9
:102C8000002422F81040401C0328EFDB00200AE05B
:102C900032F81040F84D05EB4015F84EB6F90060DB
:102CA00025F81640401C0328F2DBF44C2488641CF1
:102CB00024B2F24D2C802C462488102C01D1002403
:102CC0002C80002018E000230AE0EB4C04EB4014B9
:102CD00034F913405DF820502C444DF820405B1C23
:102CE000102BF2DB5DF82040E51704EB15752D1174
:102CF0002DB221F81050401C0328E4DB00200DE029
:102D000031F91040B4F5C87F07DA31F9104014F5F5
:102D1000C87F02DD002421F81040401C0328EFDBAF
:102D20007EBD00B5A3B04FF07E50179000201690E6
:102D3000159014901D9034E30EA818A90FAB10AA9B
:102D4000CDE9001019A91BA804F046F8BDF86000F1
:102D500000F48070002801D0109891E11DE300007C
:102D60006D707520696E697469616C697A617469E6
:102D70006F6E20636F6D706C6574652E2E2E2E2E17
:102D80002E0A00006D70755F7365745F73656E73F6
:102D90006F7220636F6D706C657465202E2E2E2E01
:102DA0002E2E0A006D70755F7365745F73656E73A8
:102DB0006F7220636F6D65206163726F737320653E
:102DC00072726F72202E2E2E2E2E2E0A0000000000
:102DD0006D70755F636F6E6669677572655F666952
:102DE000666F20636F6D706C657465202E2E2E2EBD
:102DF0002E2E0A006D70755F636F6E66696775725F
:102E0000655F6669666F20636F6D65206163726FD1
:102E10007373206572726F72202E2E2E2E2E2E0A44
:102E2000000000006D70755F7365745F61636365BA
:102E30006C5F66737220636F6D706C657465202EB5
:102E40002E2E2E2E2E0D0A006D70755F7365745F29
:102E5000616363656C5F667372206572726F722066
:102E60002E2E2E2E2E2E0D0A000000006D70755F86
:102E70007365745F73616D706C655F7261746520FA
:102E8000636F6D706C657465202E2E2E2E2E2E0AAB
:102E9000000000006D70755F7365745F73616D7025
:102EA0006C655F72617465206572726F72202E2E80
:102EB0002E2E2E2E0A000000646D705F6C6F616410
:102EC0005F6D6F74696F6E5F6472697665725F665D
:102ED00069726D7761726520636F6D706C65746582
:102EE000202E2E2E2E2E2E0A00000000646D705F04
:102EF0006C6F61645F6D6F74696F6E5F6472697629
:102F000065725F6669726D7761726520636F6D656A
:102F1000206163726F7373206572726F72202E2E40
:102F20002E2E2E2E0A0000005C000020646D705FC3
:102F30007365745F6F7269656E746174696F6E201A
:102F4000636F6D706C657465202E2E2E2E2E2E0AEA
:102F500000000000646D705F7365745F6F72696577
:102F60006E746174696F6E20636F6D65206163724A
:102F70006F7373206572726F72202E2E2E2E2E2E7E
:102F80000A000000646D705F656E61626C655F666B
:102F900065617475726520636F6D706C6574652012
:102FA0002E2E2E2E2E2E0A00646D705F656E6162CD
:102FB0006C655F6665617475726520636F6D652011
:102FC0006163726F7373206572726F72202E2E2E82
:102FD0002E2E2E0A00000000646D705F7365745F12
:102FE0006669666F5F7261746520636F6D706C6592
:102FF0007465202E2E2E2E2E2E0A0000646D705F1A
:103000007365745F6669666F5F7261746520636F74
:103010006D65206163726F7373206572726F7220C9
:103020002E2E2E2E2E2E0A006D70755F7365745F26
:10303000646D705F737461746520636F6D706C652F
:103040007465202E2E2E2E2E2E0A00006D70755FB8
:103050007365745F646D705F737461746520636F12
:103060006D65206163726F7373206572726F722079
:103070002E2E2E2E2E2E0A00040100208C00002061
:103080000C9005F087F84FF09D410D9004F0BCFEC8
:10309000179011980C9005F07DF84FF09D410D9020
:1030A00004F0B2FE169012980C9005F073F84FF0F1
:1030B0009D410D9004F0A8FE159013980C9005F01A
:1030C00069F84FF09D410D9004F09EFE14901EA9EA
:1030D00019A8FFF7C3FDBDF97C00099005F05AF867
:1030E0000B904FF08040169904F05CFE0790149905
:1030F00004F058FE09904FF08040179904F052FEFA
:103100000790159904F04EFE0890099904F0F2FD1D
:103110000A900B9904F046FE0D90BDF97A000790D5
:1031200005F038F809904FF08040179904F03AFE06
:103130000590149904F036FE07904FF080401699E0
:1031400004F030FE0590159904F02CFE06900799C6
:1031500004F022FE0890099904F024FE0B90BDF9BA
:103160007800079005F016F809901499084604F0C5
:1031700019FE07901599084604F014FE059016995B
:10318000084604F00FFE03901799084604F00AFE63
:103190000290039904F0AEFD0490059904F0FCFD43
:1031A0000690079904F0F8FD0890099904F0FAFDDB
:1031B0000A900B9904F09EFD0C900D9904F09AFD75
:1031C0002090BDF97C00099004F0E4FF0B904FF0D3
:1031D0008040159904F0E6FD0790149904F0E2FD93
:1031E00009904FF04040179904F0DCFD07901699C4
:1031F00004F0D8FD0890099904F07CFD0A900B9921
:1032000004F0D0FD0D90BDF97A00079004F0C2FFE4
:1032100009901499084604F0C5FD079015990846D1
:1032200004F0C0FD05901699084604F0BBFD03901C
:103230001799084604F0B6FD0290039904F0ACFD1E
:103240000490059904F056FD0690079904F0A4FD3A
:103250000890099904F0A6FD0B90BDF9780007903D
:1032600004F098FF09904FF08040169904F09AFD01
:103270000590159904F096FD07904FF0804017993E
:1032800004F090FD0590149904F08CFD06900799C8
:1032900004F030FD0890099904F084FD0A900B9920
:1032A00004F028FD0C900D9904F024FD2190BDF947
:1032B0007C00099004F06EFF0B901499084604F00E
:1032C00071FD09901599084604F06CFD0790169958
:1032D000084604F067FD05901799084604F062FD62
:1032E0000490059904F058FD0690079904F054FDE8
:1032F0000890099904F0FEFC0A900B9904F052FD25
:103300000D90BDF97A00079004F044FF09904FF04A
:103310008040159904F046FD0590149904F042FD93
:1033200007904FF08040179904F03CFD05901699E6
:1033300004F038FD0690079904F0DCFC0890099928
:1033400004F030FD0B90BDF97800079004F022FFE7
:1033500009904FF08040179904F024FD05901599CD
:1033600004F020FD07904FF08040169904F01AFDFC
:103370000590149904F016FD0690079904F00CFDD1
:103380000890099904F00EFD0A900B9904F0B2FC24
:103390000C900D9904F0AEFC22901D98401C80B258
:1033A0001D9042F210711D988842FFF6C5AC0020B6
:1033B0001D90D2E10EA818A90FAB10AACDE90010FC
:1033C00019A91BA803F008FDBDF8600000F4807087
:1033D00000287DD010980C9004F0DCFE4FF09D4149
:1033E0000D9004F011FD179011980C9004F0D2FE8E
:1033F0004FF09D410D9004F007FD169012980C902F
:1034000004F0C8FE4FF09D410D9004F0FDFC1590B6
:1034100013980C9004F0BEFE4FF09D410D9004F007
:10342000F3FC14901EA919A8FFF718FCBDF97C0045
:10343000099004F0AFFE0B904FF08040169904F015
:10344000B1FC0790149904F0ADFC09904FF0804056
:10345000179904F0A7FC0790159904F0A3FC0890B5
:10346000099904F047FC0A900B9904F09BFC0D901D
:10347000BDF97A00079004F08DFE09904FF080406E
:10348000179904F08FFC0590149904F08BFC0790B9
:103490004FF08040169904F085FC0590159904F0D2
:1034A00081FC0690079904F077FC0890099904F0D4
:1034B00079FC0B90BDF97800079004F06BFE099041
:1034C0001499084604F06EFC07901599084600E030
:1034D0003FE104F067FC05901699084604F062FC91
:1034E00003901799084604F05DFC0290039904F0DC
:1034F00001FC0490059904F04FFC0690079904F034
:103500004BFC0890099904F04DFC0A900B9904F0CB
:10351000F1FB0C900D9904F0EDFB2090BDF97C00BF
:10352000099004F037FE0B904FF08040159904F09D
:1035300039FC0790149904F035FC09904FF0404095
:10354000179904F02FFC0790169904F02BFC0890B3
:10355000099904F0CFFB0A900B9904F023FC0D901D
:10356000BDF97A00079004F015FE099014990846F9
:1035700004F018FC07901599084604F013FC059018
:103580001699084604F00EFC03901799084604F0BB
:1035900009FC0290039904F0FFFB0490059904F0E4
:1035A000A9FB0690079904F0F7FB0890099904F02D
:1035B000F9FB0B90BDF97800079004F0EBFD099042
:1035C0004FF08040169904F0EDFB0590159904F03A
:1035D000E9FB07904FF08040179904F0E3FB05905A
:1035E000149904F0DFFB0690079904F083FB089020
:1035F000099904F0D7FB0A900B9904F07BFB0C901F
:103600000D9904F077FB2190BDF97C00099004F03E
:10361000C1FD0B901499084604F0C4FB099015995C
:10362000084604F0BFFB07901699084604F0BAFB61
:1036300005901799084604F0B5FB0490059904F02D
:10364000ABFB0690079904F0A7FB0890099904F0DA
:1036500051FB0A900B9904F0A5FB0D90BDF97A007F
:10366000079004F097FD09904FF08040159904F001
:1036700099FB0590149904F095FB07904FF080405A
:10368000179904F08FFB0590169904F08BFB0690B8
:10369000079904F02FFB0890099904F083FB0B9025
:1036A000BDF97800079004F075FD09904FF0804057
:1036B000179904F077FB0590159904F073FB0790B8
:1036C0004FF08040169904F06DFB0590149904F0BA
:1036D00069FB0690079904F05FFB0890099904F0D4
:1036E00061FB0A900B9904F005FB0C900D9904F016
:1036F00001FB229020984FF08D410C9004F084FB48
:103700000D90FE4801680D9804F0F4FAFB4908603A
:1037100021984FF08D410C9004F076FB0D90F84805
:1037200001680D9804F0E6FAF549086022984FF018
:103730008D410C9004F068FB0D90F24801680D98E3
:1037400004F0D8FAEF490860EF480088401CEE49C1
:1037500008801D98401C80B21D9042F210711D9887
:103760008842FFF627AEE848008804F01CFD0146B9
:103770000D90E248006804F047FBE0490860E24829
:10378000008804F010FD01460D90DD48006804F04B
:103790003BFBDB490860DC48008804F004FD01467F
:1037A0000D90D848006804F02FFBD6490860084601
:1037B000006804F049FDCDE90801D14801680068BE
:1037C00004F0F0FA0290CD480168006804F0EAFACB
:1037D0004FF07E51009004F0E2FA0190029904F05B
:1037E000DBFA039004F030FDCDE9040105F032FF6F
:1037F000CDE90601DDE9082304F0E5FB0022C34B17
:10380000CDE90A0104F0E5FBCDE90C0104F0FDFC73
:10381000BF49086008460068002803DA08460068C7
:103820004042086023B000BD00B5A7B04FF07E5005
:103830001B9000201A90199018901090B5490870AC
:1038400000BF12A81CA913AB14AACDE900101DA932
:103850001FA803F0C1FABDF8700000F480700028C2
:10386000EFD0BDF8700000F4807000287DD014986F
:103870000E9004F08FFC4FF09D410F9004F0C4FABD
:103880001B9015980E9004F085FC4FF09D410F9011
:1038900004F0BAFA1A9016980E9004F07BFC4FF0E0
:1038A0009D410F9004F0B0FA199017980E9004F013
:1038B00071FC4FF09D410F9004F0A6FA18904FF064
:1038C00080401B9904F06EFA0490199904F06AFA8A
:1038D00006904FF040401A9904F064FA0490189949
:1038E00004F060FA0590069904F004FA079004F0D9
:1038F000ABFCCDE9080105F0A5FB4FF06632864B25
:10390000CDE90A0104F065FB0022844BCDE90C01EE
:1039100004F0B8FACDE90E0104F0DAFC8049086041
:103920004FF08040199904F03DFA0190199904F084
:1039300039FA03904FF040401A9904F033FA01909D
:103940001A9904F02FFA0290039904F025FA4FF027
:103950007E51049004F0CEF9059004F075FCCDE999
:1039600008014FF080401B9900E0FDE304F01AFAD3
:1039700002901A9904F016FA04904FF080401999B9
:1039800004F010FA0290189904F00CFA03900499CC
:1039900004F0B0F9059004F057FCCDE90601DDE92B
:1039A000082305F097FD4FF066325B4BCDE90A0125
:1039B00004F00FFB00224FF04043CDE90C0104F06E
:1039C00061FACDE90E0104F083FC5649086021A993
:1039D0001DA8FFF743F9BDF988000B9004F0DAFB4E
:1039E0000D904FF080401A9904F0DCF90990189975
:1039F00004F0D8F90B904FF080401B9904F0D2F9F5
:103A00000990199904F0CEF90A900B9904F072F913
:103A10000C900D9904F0C6F90F90BDF9860009903D
:103A200004F0B8FB0B904FF080401B9904F0BAF9FA
:103A30000790189904F0B6F909904FF080401A9950
:103A400004F0B0F90790199904F0ACF908900999BD
:103A500004F0A2F90A900B9904F0A4F90D90BDF9B5
:103A60008400099004F096FB0B901899084604F026
:103A700099F909901999084604F094F907901A9950
:103A8000084604F08FF905901B99084604F08AF95E
:103A90000490059904F02EF90690079904F07CF93A
:103AA0000890099904F078F90A900B9904F07AF9D2
:103AB0000C900D9904F01EF90E900F9904F01AF96C
:103AC0002390BDF988000B9004F064FB0D904FF03B
:103AD0008040199904F066F90990189904F062F988
:103AE0000B904FF040401B9904F05CF909901A9933
:103AF00004F058F90A900B9916E0000068000020C5
:103B00006C000020700000208E0000200000D040DB
:103B1000740000206500002066A64C400000F03FC5
:103B2000780000207C00002004F0E4F80C900D994F
:103B300004F038F90F90BDF98600099004F02AFBD3
:103B40000B901899084604F02DF909901999084628
:103B500004F028F907901A99084604F023F9059013
:103B60001B99084604F01EF90490059904F014F915
:103B70000690079904F0BEF80890099904F00CF932
:103B80000A900B9904F00EF90D90BDF9840009908C
:103B900004F000FB0B904FF080401A9904F002F9FA
:103BA0000790199904F0FEF809904FF080401B9996
:103BB00004F0F8F80790189904F0F4F808900999BF
:103BC00004F098F80A900B9904F0ECF80C900D9919
:103BD00004F090F80E900F9904F08CF82490BDF941
:103BE0008800FE49096808440B9004F0D3FA0D9050
:103BF0001899084604F0D6F80B901999084604F075
:103C0000D1F809901A99084604F0CCF807901B994E
:103C1000084604F0C7F80690079904F0BDF808902C
:103C2000099904F0B9F80A900B9904F063F80C9024
:103C30000D9904F0B7F80F90BDF98600099004F0D3
:103C4000A9FA0B904FF08040199904F0ABF8079057
:103C5000189904F0A7F809904FF080401B9904F0E0
:103C6000A1F807901A9904F09DF80890099904F0BA
:103C700041F80A900B9904F095F80D90BDF9840075
:103C8000099004F087FA0B904FF080401B9904F0E4
:103C900089F80790199904F085F809904FF0804051
:103CA0001A9904F07FF80790189904F07BF80890AF
:103CB000099904F071F80A900B9904F073F80C90CC
:103CC0000D9904F017F80E900F9904F013F8259051
:103CD00023984FF08D41089004F096F8099004F075
:103CE000B3FABF4ABF4BCDE90A0104F072F9BC4AEE
:103CF000BC4BCDE90C0104F0C5F8CDE90E0104F090
:103D0000E7FAB949086024984FF08D41089004F013
:103D10007BF8099004F098FAB14AB24BCDE90A0158
:103D200004F057F9AE4AAF4BCDE90C0104F0AAF804
:103D3000CDE90E0104F0CCFAAC49086025984FF0AB
:103D40008D410A9004F060F80B9004F07DFAA44ACB
:103D5000A44BCDE90C0104F03CF9CDE90E0104F0CF
:103D6000B7FAA3490860A348006804F06DFA00227E
:103D70001346CDE90E0104F07BFA03D19E4800689A
:103D80009C4908609A48006804F05EFA9B4A9C4B84
:103D9000CDE90E0104F084FA77D29548006804F06A
:103DA00053FA4FF03332974BCDE90E0104F060FA2D
:103DB000F2D29048006804F047FA894A924BCDE964
:103DC0000A0104F000F9CDE90E018948006804F009
:103DD0003BFACDE90C01DDE90E2304F061FA24D2AF
:103DE0008448006804F030FA7D4A874BCDE90A0127
:103DF00004F048F8CDE90E017D48006804F024FA8B
:103E0000CDE90C01DDE90E2304F032FA0DD27F4832
:103E10000078401C7D490870754801687C4800683E
:103E200003F068FF7A49086004E0002077490870D1
:103E30007749086077480078022810D176480078E2
:103E400002280CD100207349087073490870734828
:103E500000681090002072490860704908606D4841
:103E60000078032826D16F48007878B94FF0824156
:103E70006D48006804F048FA03D26C48006867494E
:103E8000086000206A49087003E054E0002065499A
:103E900008706148007803280CD100205D49087043
:103EA0005D4908705D480068109000205C4908601A
:103EB0005A490860554800780A283CD100205849E2
:103EC00008605C495248006803F09EFF4A49086058
:103ED00000204E4908704E4908604E48007801287D
:103EE00006D100204B4908704D4908604B490860D5
:103EF0004848007804281ED10020464908704FF039
:103F000082414948006804F0FFF90DD24748006833
:103F10004249086040480078042805D100203E4905
:103F200008703E48006810900020414908703C49E4
:103F300008603A4908602E48006804F085F92F4A65
:103F40002F4BCDE90E0104F093F90BD328480068FC
:103F500004F07AF94FF033322A4BCDE90E0104F028
:103F60009FF96CD22B480078B0B9324920480068DC
:103F700004F0D4F902D20120264908701C480068D8
:103F800004F062F900222C4BCDE90E0104F070F927
:103F900002D204201F4908701E480078012854D11D
:103FA00024491348006804F0B9F902D201201A49E3
:103FB0000870114801680E48006804F0A5F944D261
:103FC00015480078012802D10220124908701248D1
:103FD000007898BB04200F49087031E0740000207D
:103FE0009A99999999992340800000208400002093
:103FF00088000020A000002070000020CDCCCCCC98
:10400000CC4C234033B323409999A93F9100002021
:10401000980000209200002090000020A4000020C2
:104020009C00002094000020AC000020A80000208C
:1040300093000020000020410000234005E0F5E04F
:1040400000207F4908607F4908607F480078022887
:1040500016D100217A48006804F056F902D20020F7
:10406000774908607948006804F0EEF80022784B40
:10407000CDE90E0104F0FCF802D202207549087067
:1040800071480078042855D1734801686F4800686A
:1040900004F044F924D2714801686F48006803F0C5
:1040A0007BFE4FF080410E9003F0AEFE0F906A4809
:1040B00001680F9803F01EFE6949086065480078A2
:1040C000042802D10320604908706248007838B99A
:1040D00004205D490870002059490860594908606A
:1040E0006048007828B960485C49086001205D4953
:1040F00008705C48007801280ED158480168534880
:10410000006804F001F907D250480068534908607C
:104110004C480068554908604C48006804F094F821
:1041200000224B4BCDE90E0104F0A2F802D204208C
:10413000484908704448007803281DD100214048B0
:10414000006804F0EBF802D200203D4908604448C2
:1041500001683E48006804F0E1F802D201204449B9
:1041600008704449394800E067E0006804F0D6F878
:1041700002D20320374908703F480168334800687D
:1041800003F0B8FD4FF080410E9003F03DFE0F901C
:10419000314801680F9803F0FFFD1190374800780F
:1041A00004F001F80690119903F0FCFD079004F06B
:1041B0004BF8334A334BCDE9080103F00AFFCDE950
:1041C0000C011F48006804F03FF8CDE90A01DDE961
:1041D0000C2303F057FECDE90E0104F079F81849DD
:1041E00008602648007803F0DEFF06901448016856
:1041F000069803F0D7FD079004F026F8224A234BD7
:10420000CDE9080103F0E5FECDE90C010D48006899
:1042100004F01AF8CDE90A01DDE90C2303F032FEBF
:10422000CDE90E0104F054F806490860074800681B
:1042300011490860109827B000BD0F98FBE70000F7
:104240009C000020A4000020920000208800002094
:10425000000023409000002070000020AC000020EF
:10426000B000002093000020CDCC1C41A80000200D
:104270009400002000002041A000002065000020E4
:104280002D431CEBE2361A3F7B14AE47E17A843FA4
:1042900038B50446FB4890F82400C0B114B10220A0
:1042A000009001E000200090F64A1268D17BF54AA8
:1042B000526810786B46012203F0C2F910B14FF03A
:1042C000FF3038BD9DF80010EE48417423E0ED4802
:1042D000807A10B94FF0FF30F3E724B1E948407C11
:1042E00008B10020EDE714B10120009001E00020AA
:1042F0000090E44A1268D17BE24A526810786B461B
:10430000012203F09DF910B14FF0FF30D9E79DF87D
:104310000010DC4841740020D3E738B5002419E0D0
:10432000D8480068C07AA04204D0D6480068407DD2
:10433000A04200D10CE0D349496808786B460122BD
:10434000214603F0CCF910B14FF0FF3038BD00BF6B
:10435000601CC4B2CB4840680079A042E0DC002079
:10436000F4E770B504460D46C6480068C07AA0421E
:1043700004D0C4480068407DA04202D14FF0FF3015
:1043800070BDC04840680079A04202DC4FF0FF30A9
:10439000F6E7BC49496808782B460122214603F01C
:1043A0009EF9EDE738B50446B64890F82300A042E0
:1043B00001D1002038BD14B13020009001E0002070
:1043C0000090B048807C20B19DF8000040F00200D1
:1043D0000090AC4890F8220020B19DF8000040F019
:1043E00080000090A74A1268117DA64A5268107892
:1043F0006B46012203F024F910B14FF0FF30D9E7EA
:10440000A04880F823400020D4E738B5044604F0E3
:10441000700010B10120009005E014B10020009060
:1044200001E040200090974A1268917C954A5268BA
:1044300010786B46012203F003F920B10021914866
:104440008172481E38BD9DF8000020F040018D4863
:1044500001730020009004F0400020B99DF8000096
:1044600040F00400009004F0200020B99DF8000006
:1044700040F00200009004F0100020B99DF8000008
:1044800040F00100009004F0080020B99DF8000001
:1044900040F0380000907B4A1268D17C794A52681B
:1044A00010786B46012203F0CBF820B1002175484B
:1044B0008172481EC6E724B1082C02D00020FFF705
:1044C00071FF70488472002101753220FEF7DFFA17
:1044D0000020B7E738B504466A48807CA04201D185
:1044E000002038BD002C46D0664A12681179654A12
:1044F000526810786B46012203F0F1F810B14FF0CA
:10450000FF30EEE79DF8000020F0200000905D4AAB
:10451000126811795B4A526810786B46012203F0E9
:104520008FF810B14FF0FF30DBE70320FEF7AFFA52
:1045300002200090534890F8220020B19DF800001E
:1045400040F0800000904F4890F8230020B19DF883
:10455000000040F0300000904A4A1268117D494A3C
:10456000526810786B46012203F06AF8002851D097
:104570004FF0FF30B5E7434A12681179414A52685B
:1045800010786B46012203F0AAF810B14FF0FF300B
:10459000A7E73C48807A00F0010028B19DF80000B0
:1045A00040F02000009004E09DF8000020F0200082
:1045B0000090344A12681179324A526810786B467A
:1045C000012203F03DF810B14FF0FF3089E70320DE
:1045D000FEF75DFA2B4890F8220010B18020009081
:1045E00001E000200090274890F8230020B19DF8BA
:1045F000000040F030000090224A1268117D214AEC
:10460000526810786B46012203F01AF810B14FF08F
:10461000FF3066E71B488474002062E708B519483C
:10462000807A10B94FF0FF3008BD00200090154A85
:104630001268D17B134A526810786B46012202F04F
:10464000FFFF10B14FF0FF30EEE70E4A12685179CC
:104650000C4A526810786B46012202F0F1FF10B14B
:104660004FF0FF30E0E7074A12681179054A5268B7
:1046700010786B46012202F0E3FF28B14FF0FF30C3
:10468000D2E70000B4000020F74890F8240000288A
:1046900053D00C200090F44A12681179F24A526803
:1046A00010786B46012202F0CBFF10B14FF0FF30C3
:1046B000BAE73220FEF7EBF9C0200090EA48807A92
:1046C00000F0010020B19DF8000040F020000090B3
:1046D000E54A12681179E44A526810786B46012263
:1046E00002F0AEFF10B14FF0FF309DE7DE48407C96
:1046F00010B10220009001E000200090DA4A126818
:10470000D17BD94A526810786B46012202F098FF9B
:1047100010B14FF0FF3087E700200090D24A1268B6
:104720005179D14A526810786B46012202F088FF15
:10473000002855D04FF0FF3076E704200090CA4A99
:1047400012681179C84A526810786B46012202F04B
:1047500077FF10B14FF0FF3066E7C348807C20B987
:10476000C148807A00F0010010B94020009001E0BB
:1047700060200090BC4A12681179BB4A52681078D8
:104780006B46012202F05CFF10B14FF0FF304BE7A7
:104790003220FEF77CF9B448407C10B10120009033
:1047A00001E000200090B04A1268D17BAE4A526806
:1047B00010786B46012202F043FF10B14FF0FF303A
:1047C00032E7A94A12685179A74A52681078A64B75
:1047D0001033012202F034FF10B14FF0FF3023E715
:1047E000002021E770B50446002624F001049E480D
:1047F00090F8240008B1002070BD9B48807A10B961
:104800004FF0FF30F8E79848057C807A20409649C1
:1048100008740846007CA04202D04FF0FF3600E04A
:10482000002614B99048007D18B10120FFF730FD33
:1048300002E00020FFF72CFD3CB1FFF7EFFE20B1B6
:10484000894805744FF0FF30D6E73046D4E738B5D5
:1048500004468548807A10B94FF0FF3038BDBC2C33
:1048600002DB0120009015E0622C02DB02200090A8
:1048700010E02A2C02DB032000900BE0142C02DB5A
:104880000420009006E00A2C02DB0520009001E0E5
:10489000062000907448C07A9DF80010884201D12B
:1048A0000020DBE7704A126891786F4A52681078EE
:1048B0006B46012202F0C4FE10B14FF0FF30CDE78D
:1048C0009DF800106848C1720020C7E738B504465B
:1048D000282C02DD4FF0FF3038BDDCB90020FFF797
:1048E00061FD00208DF8000007208DF801005E4A70
:1048F0001268917C5C4A526810786B46022202F082
:104900009FFE10B14FF0FF30E6E7002156480175D9
:104910000020E1E70120FFF745FD20208DF8000091
:10492000012C06D100208DF801000520FFF78FFF34
:1049300017E0052C06DC01208DF801000520FFF7AB
:1049400086FF0EE0142C06DC02208DF801000A2000
:10495000FFF77DFF05E003208DF801001420FFF72D
:1049600076FF9DF80100072101EB8010C0B28DF8A1
:1049700001003D4A1268917C3B4A526810786B46B0
:10498000022202F05DFE10B14FF0FF30A4E70821D3
:104990003548817200210173012101750020FFF764
:1049A00021FF002098E738B504462F48807A10B9D7
:1049B0004FF0FF3038BD2C4890F8240010B14FF074
:1049C000FF30F7E72848007D50B134B1282C04DCD3
:1049D000E0B2FFF77BFF0020ECE70020FFF776FF57
:1049E000042C01DA042404E0B4F57A7F01DD4FF4ED
:1049F0007A744FF47A7090FBF4F0401EC0B20090CD
:104A0000194A12685178184A526810786B46012288
:104A100002F016FE10B14FF0FF30CBE79DF800001A
:104A2000401C4FF47A7191FBF0F081B20E48C181C5
:104A30000146C9894810FFF70AFF0020BAE738B5D8
:104A400004460948807A10B94FF0FF3038BD022C77
:104A500006D0042C0AD0082C0BD0102C0FD10BE060
:104A6000002000900EE00000B4000020082000901C
:104A700008E01020009005E01820009002E04FF0C0
:104A8000FF30E3E700BFF848407A9DF80010B0EB34
:104A9000E10F01D10020D9E7F34A1268D179F24A37
:104AA000526810786B46012202F0CAFD10B14FF037
:104AB000FF30CBE79DF80000C110EB4841720020A9
:104AC000C4E738B50446E848807A10B94FF0FF30A3
:104AD00038BDFA2C09D0B4F5FA7F09D0B4F57A7F45
:104AE00009D0B4F5FA6F0CD108E0002000900BE07B
:104AF0000820009008E01020009005E018200090A9
:104B000002E04FF0FF30E3E700BFD748007A9DF89E
:104B10000010B0EBE10F01D10020D9E7D24A1268B2
:104B20009179D14A526810786B46012202F088FDD3
:104B300010B14FF0FF30CBE79DF80000C010CA491C
:104B400008720020C4E71CB580208DF80000C64A1A
:104B50001268917CC44A526810786B46012202F0B8
:104B60006FFD10B14FF0FF301CBD6420FDF78FFFCB
:104B700000208DF80000BC4A1268917CBA4A526845
:104B800010786B46012202F05BFD10B14FF0FF3050
:104B9000EAE7B54A1268917DB34A526810786B46CD
:104BA000062202F09CFD10B14FF0FF30DCE79DF8CB
:104BB0000500C007400F9DF8031001F0010140EA15
:104BC00041009DF8011001F0010140EA01048CB19F
:104BD000012C03D10121A448C17430E0022C03D17F
:104BE0000021A148C1742AE0A0A003F03FFD4FF0CE
:104BF000FF30B9E79C4A1268D1789B4A5268107816
:104C00006B46012202F06BFD10B14FF0FF30ABE7B5
:104C10009DF8000000F00F042CB99E4803F026FD1B
:104C20004FF0FF30A0E7042C06D19BA003F01EFD3F
:104C300001218D48C17402E000218B48C174FF211D
:104C400089488172FF2088490872FF218648417295
:104C5000C1724FF6FF71C181FF210174817401217E
:104C6000017380F82210002180F82310417501752E
:104C70001630016041608160163880F8241080F899
:104C80002510C1844FF4FA60FFF71BFF10B14FF0FD
:104C9000FF3069E70220FFF7D2FE10B14FF0FF307E
:104CA00062E72A20FFF7D3FD10B14FF0FF305BE73A
:104CB0003220FFF778FE10B14FF0FF3054E70020AC
:104CC000FFF790FD10B14FF0FF304DE70020FFF7E8
:104CD00001FC10B14FF0FF3046E70020FFF795FBD5
:104CE000002041E77CB504460D465F48807A00F01D
:104CF000700010B94FF0FF307CBD5B4A1268117B29
:104D0000594A526810786B46062202F0E8FC10B14E
:104D10004FF0FF30F0E79DF801009DF8001040EAE9
:104D2000012000B220809DF803009DF8021040EAA7
:104D3000012000B260809DF805009DF8041040EA53
:104D4000012000B2A08015B12846FDF7C0FE00206A
:104D5000D2E77CB504460D464348807A00F008004F
:104D600010B94FF0FF307CBD3F4A1268517B3E4A7C
:104D7000526810786B46062202F0B1FC10B14FF079
:104D8000FF30F0E79DF801009DF8001040EA012097
:104D900000B220809DF803009DF8021040EA012037
:104DA00000B260809DF805009DF8041040EA0120E3
:104DB00000B2A08015B12846FDF789FE0020D2E799
:104DC0002DE9FE4F05460C462748807A18B94FF06A
:104DD000FF30BDE8FE8F244A1268917B224A526858
:104DE000107802AB022202F07AFC10B14FF0FF30D3
:104DF000EFE79DF809009DF8081040EA012006B28F
:104E000014B12046FDF763FE17494968C88803F0CE
:104E1000CAF9154901904968B1F9080003F0BAF9D7
:104E20008346304603F0B6F95946009002F0B4FFCD
:104E30008246019902F0E8FF81461F4902F05AFFBD
:104E400080464FF08F4102F0ADFF074603F0B0F906
:104E500028600020BDE710B588B004461CB94FF0AB
:104E6000FF3008B010BD29E0B4000020556E737506
:104E700070706F7274656420736F667477617265A9
:104E80002070726F64756374207265762025642EBD
:104E90000A000000D8A3000848616C662073656EA4
:104EA0007369746976697479207061727420666FB1
:104EB000756E642E0A00000000000C42206830B9B4
:104EC000606820B9A06810B9002008B010BDFA4988
:104ED0004968087806AB0322114602F000FC10B1C5
:104EE0004FF0FF30F1E79DF81800082101EB20108A
:104EF00000F00F00ADF800009DF8190001EB201044
:104F000000F00F00ADF802009DF81A0001EB201030
:104F100000F00F00ADF8040020684100BDF900006A
:104F2000403091FBF0F000B2ADF810006068410035
:104F3000BDF90200403091FBF0F000B2ADF8120074
:104F4000A0684100BDF90400403091FBF0F000B2D0
:104F5000ADF81400D8494968087806AB0622114616
:104F600002F0BDFB10B14FF0FF30AEE79DF8190025
:104F70009DF8181040EA012000B2ADF808009DF835
:104F80001B009DF81A1040EA012000B2ADF80A009B
:104F90009DF81D009DF81C1040EA012000B2ADF8FC
:104FA0000C00BDF81000BDF80810084400B2ADF8C0
:104FB0001000BDF81200BDF80A10084400B2ADF8A8
:104FC0001200BDF81400BDF80C10084400B2ADF892
:104FD0001400BDF81000000A8DF81800BDF810008C
:104FE000C0B28DF81900BDF81200000A8DF81A0041
:104FF000BDF81200C0B28DF81B00BDF81400000A05
:105000008DF81C00BDF81400C0B28DF81D00AA492F
:105010004968087806AB0622114602F011FB10B170
:105020004FF0FF3051E700204FE70146A248007AD9
:1050300030B1012807D0022809D003280FD10AE097
:10504000FA2008800EE04FF4FA7008800AE04FF46E
:105050007A70088006E04FF4FA60088002E00020D1
:10506000088000BF00BF0020704701469248407A88
:1050700030B1012807D0022808D003280CD108E05D
:10508000022008700BE00420087008E00820087077
:1050900005E01020087002E04FF0FF30704700BFBD
:1050A0008548C07C18B108784006000E08700020C2
:1050B000F4E701468048C07A082817D2DFE800F0FC
:1050C0001704070A0D101318BC20088013E0622093
:1050D000088010E02A2008800DE0142008800AE0F3
:1050E0000A20088007E00520088004E000BF00BF18
:1050F0000020088000BF00BF0020704701466E48B6
:1051000090F8240010B14FF0FF3070476A48C08912
:1051100008800020F9E7014600200880401E704703
:1051200001464FF0FF30704701466348007A30B1C6
:10513000012807D0022808D003280CD108E05F48D6
:1051400008600BE05E48086008E05E48086005E023
:105150005D48086002E04FF0FF30704700BF00205C
:10516000FBE701465448407A30B1012808D00228B4
:105170000AD0032810D10BE04FF4804008800EE0E5
:1051800041F69C7008800AE04FF48050088006E0E9
:105190004FF40060088002E04FF0FF30704700BF1E
:1051A0004548C07C10B10888401008800020F5E711
:1051B00001464148007C08700020704701463E4887
:1051C000807A10B10120087001E0002008700020F2
:1051D000704738B504463848807A10B94FF0FF3030
:1051E00038BD354A1268117C334A526810786B46D4
:1051F000022202F074FA10B14FF0FF30F0E79DF890
:1052000001009DF8001040EA012000B2208000203B
:10521000E6E72DE9FE4F0746884692461D46DDF833
:1052200030B000260024244890F8240010B1601EFD
:10523000BDE8FE8F002028701F48807A10B94FF01B
:10524000FF30F5E71C48007C10B94FF0FF30EFE766
:105250001948007C00F0400008B1B01CC6B21648E6
:10526000007C00F0200008B1B01CC6B21248007CDF
:1052700000F0100008B1B01CC6B20F48007C00F06E
:10528000080008B1B01DC6B20B4A1268917A0A4AEA
:10529000526810786B46022202F021FA10B14FF0EA
:1052A000FF30C5E79DF801009DF8001040EA012994
:1052B000B1450BDA0020BBE7B40000200000034337
:1052C000000083423333034233338341FC48406858
:1052D0004088B9EB600F17DDF94A1268517CF84A33
:1052E000526810786B46012202F0F9F910B14FF0C4
:1052F000FF309DE79DF8000000F0100020B1FFF79F
:105300008DF96FF0010093E75046FDF7E0FBEC4AA2
:105310001268D17AEA4A526810786B46324602F037
:10532000DEF910B14FF0FF3082E799FBF6F0401E36
:105330008BF8000000202870B4422AD0E048007C9E
:1053400000F0080028B3601C1DF800001DF80410D0
:1053500040EA012000B2A8F80000E01C1DF800108F
:10536000A01C1DF8000041EA002000B2A8F80200CD
:10537000601D1DF80010201D1DF8000041EA0020EE
:1053800000B2A8F80400287840F008002870A01D9A
:1053900084B2B44213D0CA48007C00F0400070B11F
:1053A000601C1DF800001DF8041040EA012000B246
:1053B0003880287840F040002870A01C84B2B442A5
:1053C00013D0BF48007C00F0200070B1601C1DF8B5
:1053D00000001DF8041040EA012000B2788028780F
:1053E00040F020002870A01C84B2B44213D0B4480E
:1053F000007C00F0100070B1601C1DF800001DF86A
:10540000041040EA012000B2B880287840F0100073
:105410002870A01C84B200200AE7F8B504460F46A5
:105420001646A74890F8240010B94FF0FF30F8BD99
:10543000A348807A10B94FF0FF30F8E7A04A12680D
:10544000917A9F4A526810786B46022202F047F91F
:1054500010B14FF0FF30EAE79DF801009DF8001011
:1054600040EA0125A54203DA00203070401EDEE745
:10547000934840684088B5EB600F17DD904A12688A
:10548000517C8F4A526810786B46012202F027F94E
:1054900010B14FF0FF30CAE79DF8000000F0100097
:1054A00020B1FFF7BBF86FF00100C0E7E2B2844B18
:1054B0001B68D97A824B5B6818783B4602F00FF97B
:1054C00010B14FF0FF30B2E795FBF4F0401E3070A2
:1054D0000020ACE701467A4880F82210002070478F
:1054E0007CB5054676494968087801AB04220D2150
:1054F00002F0F5F808B107207CBD9DF80700C0F365
:1055000001109DF8041001F0E00140EAE1008DF87F
:1055100000009DF80700C0F381009DF8051001F020
:10552000E00140EAE1008DF801009DF8070000F07D
:1055300003009DF8061001F0E00140EAE1008DF85B
:10554000020000241CE01DF8040018B9002045F8F2
:10555000240013E05B4845F8240006E055F82400D9
:10556000594902F01FFC45F824001DF80400401EB4
:10557000C0B20DF804000028F0D100BF601CC4B216
:10558000032CE0DB0020B7E72DE9FE4F06460F466F
:1055900000256846FFF7A4FF002442E056F82400E7
:1055A00057F82410A0EB010ABAF1000F01DB5146B5
:1055B00001E0CAF10001084602F0ECFD83464FF01D
:1055C0008F4102F021FC80465DF82400002102F0AA
:1055D0009BFE16D05DF82410404602F015FC824672
:1055E0004FF07E5102F0D8FB814629F0004A37483F
:1055F000416A504602F092FE12D20120A0400543BB
:105600000EE03248C169404602F07EFE05D32F48C5
:10561000016A404602F082FE02D20120A04005430A
:10562000641C032CBADB2846BDE8FE8F2DE9FC5F25
:1056300006460F46002522494968087801AB032237
:105640000D2102F04CF810B10720BDE8FC9F9DF839
:10565000040000F01F008DF804009DF8050000F024
:105660001F008DF805009DF8060000F01F008DF862
:105670000600002462E056F8240057F82410A0EB3E
:10568000010BBBF1000F01DB594601E0CBF100013A
:10569000084602F07FFD4FF08F41009002F0B4FB0E
:1056A000814601A8005DC0B30849086802F07BFD8F
:1056B00083465946064802F0A7FB80460FE00000EB
:1056C000B40000207B14AE3E1D5A843FC8960008EB
:1056D00000B04C45FE49404602F064FB804601A8FC
:1056E000005D401EC0B201A908550028F2D1414614
:1056F000484602F089FB83464FF07E5102F04CFB96
:1057000082462AF0004BF3488169584602F006FEB3
:1057100013D20120A04005430FE0FFE7ED480169E7
:10572000484602F0F1FD05D3EA484169484602F0D7
:10573000F5FD02D20120A0400543641C032C9ADB36
:10574000284682E72DE9F04F87B005460C46914682
:1057500001208DF8100000208DF81100DE4A12683B
:10576000917CDD4A5268107804AB022201F068FF98
:1057700020B14FF0FF3007B0BDE8F08FC820FDF733
:1057800086F900208DF81000D34A1268D17BD24AE6
:105790005268107804AB012201F052FF10B14FF0B3
:1057A000FF30E8E7CC4A12685179CB4A526810784A
:1057B00004AB012201F044FF10B14FF0FF30DAE7F3
:1057C000C54A1268917CC44A5268107804AB012221
:1057D00001F036FF10B14FF0FF30CCE7BE4A12683F
:1057E000D17DBD4A5268107804AB012201F028FF38
:1057F00010B14FF0FF30BEE7B74A12681179B64AD0
:105800005268107804AB012201F01AFF10B14FF07A
:10581000FF30B0E70C208DF81000AF4A1268117904
:10582000AD4A5268107804AB012201F009FF10B1B3
:105830004FF0FF309FE70F20FDF729F9A648806A57
:10584000407A8DF81000A44A12689178A24A5268F2
:10585000107804AB012201F0F3FE10B14FF0FF30DD
:1058600089E79D48806A007A8DF810009A4A12688C
:105870005178994A5268107804AB012201F0E0FE99
:1058800010B14FF0FF3076E7B9F1000F07D0924822
:10589000806A807A40F0E0008DF8100004E08E48C5
:1058A000806A807A8DF810008B4A126891798A4A52
:1058B0005268107804AB012201F0C2FE10B14FF023
:1058C000FF3058E7B9F1000F07D08348806AC07AEB
:1058D00040F0E0008DF8100003E07E48C07A8DF8BB
:1058E00010007D4A1268D1797B4A5268107804AB67
:1058F000012201F0A5FE10B14FF0FF303BE7B9F1F6
:10590000000F02D0C820FDF7C2F840208DF810002B
:10591000714A12681179704A5268107804AB0122FA
:1059200001F08EFE10B14FF0FF3024E778208DF8A3
:105930001000694A12685179674A5268107804ABBE
:10594000012201F07DFE10B14FF0FF3013E76149F5
:105950008889FDF79CF800208DF810005E4A1268D7
:1059600051795D4A5268107804AB012201F068FE5B
:1059700010B14FF0FF30FEE6574A1268917A564A4E
:105980005268107804AB022201F0A9FE10B14FF06A
:10599000FF30F0E69DF811009DF8101040EA012B51
:1059A0000C209BFBF0F0C6B20020A8606860286065
:1059B000A06060602060824665E0474A1268D17A44
:1059C000454A5268107804AB0C2201F088FE10B1F1
:1059D0004FF0FF30CFE69DF811009DF8101040EA1F
:1059E000012000B2ADF808009DF813009DF81210D8
:1059F00040EA012000B2ADF80A009DF815009DF8BC
:105A0000141040EA012000B2ADF80C00BDF90810F6
:105A1000206808442060BDF90A106068084460608E
:105A2000BDF90C10A0680844A0609DF817009DF80F
:105A3000161040EA012000B2ADF800009DF81900F0
:105A40009DF8181040EA012000B2ADF802009DF860
:105A50001B009DF81A1040EA012000B2ADF80400C6
:105A6000BDF90010286808442860BDF90210686874
:105A700008446860BDF90410A8680844A8600AF1E9
:105A8000010000F0FF0AB24597DB1248D0F800C0D1
:105A90002868C117090441EA10410704624600233F
:105AA000384602F0D7F832460023CDE9020102F071
:105AB000D1F828600748D0F800C06868C117090409
:105AC00041EA1041070462460023384606E0000020
:105AD00054E3853FC8960008B400002002F0BAF8ED
